:10000000C1C00000DBC00000D9C00000D7C00000A4
:10001000D5C00000D3C00000D1C00000CFC0000098
:10002000CDC00000CBC000000C946B0BC7C000001B
:10003000C5C00000C3C00000C1C00000BFC00000B8
:10004000BDC00000BBC00000B9C00000B7C00000C8
:10005000B5C00000B3C00000B1C00000AFC00000D8
:10006000ADC00000ABC00000A9C00000A7C00000E8
:10007000A5C00000A3C00000A1C000009FC00000F8
:100080009DC000009BC0000099C0000097C0000008
:1000900095C0000093C0000091C000008FC0000018
:1000A0008DC000008BC0000089C000001A034F0003
:1000B00074006F0067006500200053006C00690049
:1000C000640065007200000048034E006900730080
:1000D000680069006E00610020004B0065006E0042
:1000E0007400610028006200610073006500640014
:1000F00020006200790020004400650061006E006D
:100100002000430061006D0065007200610029005D
:1001100000000403090409022200010100C03209A1
:100120000400000103000000092111010001223A2E
:1001300000070581030800051201100100000008F6
:10014000EB03432001000102000105010904A101A4
:100150000901A10009300931093216ECFF2614000B
:1001600036FFFF460100950375088102C005091995
:100170000129101500250175019510810275009562
:10018000018101C011241FBECFEFDAE0DEBFCDBF79
:1001900011E0A0E0B1E0E4E1FCE102C005900D92C5
:1001A000A031B107D9F721E0A0E1B1E001C01D9273
:1001B000A634B207E1F76CD00C94080E21CF292F9A
:1001C000332723303105C9F038F42130310559F097
:1001D0002230310569F035C02132310541F122323A
:1001E000310551F12EC082E190E028E331E032C0C8
:1001F00082E290E026E131E02DC09927813091051F
:1002000051F018F0029769F021C0E2E1F1E0849129
:1002100090E09F011FC0E8ECF0E0849190E09F0126
:1002200019C0ECEAF0E0849190E09F0113C089E0EE
:1002300090E028E231E00EC08AE390E02AE431E069
:1002400009C080E090E020E030E004C080E090E071
:1002500020E030E0FA0131832083089584B7877F5E
:1002600084BF0FB6F894A895809160008861809350
:100270006000109260000FBE90E080E80FB6F89426
:1002800080936100909361000FBE0C944D0B089514
:10029000E5DF78942AE030E04FEFE7E1F1E047B99D
:1002A00018B88FE99FE00197F1F700C0000017B878
:1002B000379907C080819181019691838083379B14
:1002C000F9CF47B918B88FE99FE00197F1F700C05F
:1002D000000017B8369907C08281938101969383F5
:1002E0008283369BF9CF44B915B88FE99FE0019717
:1002F000F1F700C0000014B81B9907C084819581F4
:100300000196958384831B9BF9CF44B915B88FE977
:100310009FE00197F1F700C0000014B81A9907C0D8
:10032000868197810196978386831A9BF9CF44B97A
:1003300015B88FE99FE00197F1F700C0000014B8ED
:10034000199907C080859185019691878087199BAF
:10035000F9CF44B915B88FE99FE00197F1F700C0D4
:10036000000014B8189907C0828593850196938779
:100370008287189BF9CF40BB11BA8FE99FE00197A4
:10038000F1F700C0000010BA799907C084859585FF
:10039000019695878487799BF9CF40BB11BA8FE985
:1003A0009FE00197F1F700C0000010BA789907C0EC
:1003B00086859785019697878687789BF9CF4AB976
:1003C0001BB88FE99FE00197F1F700C000001AB851
:1003D0004B9907C0808991890196918B808B4B9BAB
:1003E000F9CF4AB91BB88FE99FE00197F1F700C038
:1003F00000001AB84D9907C0828993890196938BA2
:10040000828B4D9BF9CF4AB91BB88FE99FE00197CA
:10041000F1F700C000001AB84E9907C08489958989
:100420000196958B848B4E9BF9CF4AB91BB88FE907
:100430009FE00197F1F700C000001AB84C9907C07F
:10044000868997890196978B868B4C9BF9CF44B907
:1004500015B88FE99FE00197F1F700C0000014B8CC
:100460001C9907C0808D918D0196918F808F1C9B68
:10047000F9CF4AB91BB88FE99FE00197F1F700C0A7
:1004800000001AB84F9907C0828D938D0196938F03
:10049000828F4F9BF9CF44B915B88FE99FE0019740
:1004A000F1F700C0000014B81E9907C0848D958D27
:1004B0000196958F848F1E9BF9CF44B915B88FE9AB
:1004C0009FE00197F1F700C0000014B81D9907C024
:1004D000868D978D0196978F868F1D9BF9CF215022
:1004E000310909F0DCCEE7E1F1E0C7E3D1E02AE031
:1004F00030E080819181B9010E94C40D61937193B4
:10050000EC17FD07B1F780E091E0D0D40E94AA0D6E
:10051000FACF0895089580E091E0B4D4E2EEF0E0DF
:10052000808184608083089580E091E062C30895B3
:1005300080910E0190910F01009729F001979093FF
:100540000F0180930E0108950F931F93F90180917D
:100550001001909111018730910509F487C1ACF425
:100560008330910509F4BEC04CF48130910509F443
:1005700057C00CF086C0892B11F131C3853091052D
:1005800009F412C10CF4DFC040C18B30910509F4AD
:1005900031C23CF48930910509F4CAC10CF497C109
:1005A000F8C18D30910509F487C20CF454C28E3025
:1005B000910509F4B2C20F9709F4E0C210C38FEF9E
:1005C00087B918B810923801109237018FE99FE06F
:1005D0000197F1F700C0000017B837990BC0809160
:1005E000370190913801019690933801809337013B
:1005F000379BF5CFA0911001B0911101AA0FBB1F3D
:10060000A95EBE4F80913701909138012D913C91A8
:10061000821B930B0396079718F083818160838375
:100620008FEF87B918B810923801109237018FE90F
:100630009FE00197F1F700C0000017B836990BC092
:100640008091370190913801019690933801809301
:100650003701369BF5CFA0911001B0911101AA0F7F
:10066000BB1FA95EBE4F80913701909138012D913B
:100670003C91821B930B0396079718F0838182604D
:1006800083838FEF84B915B8109238011092370127
:100690008FE99FE00197F1F700C0000014B81B99A3
:1006A0000BC08091370190913801019690933801E9
:1006B000809337011B9BF5CFA0911001B0911101E0
:1006C000AA0FBB1FA95EBE4F8091370190913801E0
:1006D0002D913C91821B930B0396079718F0838111
:1006E000846083838FEF84B915B81092380110921B
:1006F00037018FE99FE00197F1F700C0000014B8BF
:100700001A990BC08091370190913801019690930E
:100710003801809337011A9BF5CFA0911001B09159
:100720001101AA0FBB1FA95EBE4F809137019091A6
:1007300038012D913C91821B930B0396079718F07B
:100740008381886083838FEF84B915B81092380154
:10075000109237018FE99FE00197F1F700C0000088
:1007600014B819990BC08091370190913801019606
:100770009093380180933701199BF5CFA091100118
:10078000B0911101AA0FBB1FA95EBE4F8091370126
:10079000909138012D913C91821B930B0396079702
:1007A00018F08381806183838FEF84B915B810922C
:1007B0003801109237018FE99FE00197F1F700C0EF
:1007C000000014B818990BC080913701909138013E
:1007D00001969093380180933701189BF5CFA09133
:1007E0001001B0911101AA0FBB1FA95EBE4F8091ED
:1007F0003701909138012D913C91821B930B039608
:10080000079718F08381806283838FEF80BB11BAD2
:1008100010923801109237018FE99FE00197F1F7AC
:1008200000C0000010BA79990BC0809137019091F7
:10083000380101969093380180933701799BF5CF69
:10084000A0911001B0911101AA0FBB1FA95EBE4F6C
:1008500080913701909138012D913C91821B930B2F
:100860000396079718F08381806483838FEF80BBA2
:1008700011BA10923801109237018FE99FE0019769
:10088000F1F700C0000010BA78990BC080913701D1
:100890009091380101969093380180933701789BAD
:1008A000F5CFA0911001B0911101AA0FBB1FA95E55
:1008B000BE4F80913701909138012D913C91821B60
:1008C000930B0396079718F08381806883838FEFDB
:1008D0008AB91BB810923801109237018FE99FE056
:1008E0000197F1F700C000001AB84B990BC0809136
:1008F0003701909138010196909338018093370128
:100900004B9BF5CFA0911001B0911101AA0FBB1F15
:10091000A95EBE4F80913701909138012D913C9195
:10092000821B930B0396079718F084818160848360
:100930008FEF8AB91BB810923801109237018FE9F6
:100940009FE00197F1F700C000001AB84D990BC065
:1009500080913701909138010196909338018093EE
:1009600037014D9BF5CFA0911001B0911101AA0F55
:10097000BB1FA95EBE4F80913701909138012D9128
:100980003C91821B930B0396079718F08481826039
:1009900084838FEF8AB91BB8109238011092370107
:1009A0008FE99FE00197F1F700C000001AB84E9957
:1009B0000BC08091370190913801019690933801D6
:1009C000809337014E9BF5CFA0911001B09111019A
:1009D000AA0FBB1FA95EBE4F8091370190913801CD
:1009E0002D913C91821B930B0396079718F08481FD
:1009F000846084838FEF8AB91BB8109238011092FB
:100A000037018FE99FE00197F1F700C000001AB8A5
:100A10004C990BC0809137019091380101969093C9
:100A20003801809337014C9BF5CFA0911001B09114
:100A30001101AA0FBB1FA95EBE4F80913701909193
:100A400038012D913C91821B930B0396079718F068
:100A50008481886084838FEF84B915B8109238013F
:100A6000109237018FE99FE00197F1F700C0000075
:100A700014B81C990BC080913701909138010196F0
:100A800090933801809337011C9BF5CFA091100102
:100A9000B0911101AA0FBB1FA95EBE4F8091370113
:100AA000909138012D913C91821B930B03960797EF
:100AB00018F08481806184838FEF8AB91BB810920B
:100AC0003801109237018FE99FE00197F1F700C0DC
:100AD00000001AB84F990BC08091370190913801EE
:100AE000019690933801809337014F9BF5CFA091E9
:100AF0001001B0911101AA0FBB1FA95EBE4F8091DA
:100B00003701909138012D913C91821B930B0396F4
:100B1000079718F08481806284838FEF84B915B8B9
:100B200010923801109237018FE99FE00197F1F799
:100B300000C0000014B81E990BC08091370190913D
:100B40003801019690933801809337011E9BF5CFB1
:100B5000A0911001B0911101AA0FBB1FA95EBE4F59
:100B600080913701909138012D913C91821B930B1C
:100B70000396079718F08481806484838FEF84B98B
:100B800015B810923801109237018FE99FE0019754
:100B9000F1F700C0000014B81D990BC08091370117
:100BA00090913801019690933801809337011D9BF5
:100BB000F5CFA0911001B0911101AA0FBB1FA95E42
:100BC000BE4F80913701909138012D913C91821B4D
:100BD000930B0396079718F084818068848385E0DF
:100BE00090E0F8019183808380E01F910F91089538
:100BF00008953F924F925F926F927F928F929F9251
:100C0000AF92BF92CF92DF92EF92FF920F931F931A
:100C1000CF93DF9300D01F92CDB7DEB76C01EDB656
:100C2000FEB68091E80083FF13C1F601808190E059
:100C300020914201309143012817390709F008C17A
:100C400080913F01833009F4A0C030F4813071F00D
:100C5000823009F4E2C0FCC08A3009F4C2C08B3093
:100C600009F4ABC0893009F0F3C051C080913E0156
:100C7000813A09F0EDC0ADB6BEB61A821982EEE334
:100C8000F1E0828113818B83F6018085482F50E04B
:100C90008DB79EB7841B950B0FB6F8949EBF0FBE01
:100CA0008DBFEDB7FEB731964F0160E070E0CF0128
:100CB000A8D74FEF410F8E010F5F1F4F9401BE0168
:100CC0006D5F7F4FC60140DCF601868197810097FA
:100CD00021F0408550E0B4018BD71092E900E8EE96
:100CE000F0E08081877F80838B8181118093F10088
:100CF00069817A81C401F4D1E8EEF0E080818B77DC
:100D000080830FB6F894BEBE0FBEADBEA1C0809169
:100D10003E01813209F09CC06DB67EB6EEE3F1E093
:100D200006811781528043808DB79EB7801B910B3F
:100D30000FB6F8949EBF0FBE8DBFEDB7FEB73196CC
:100D40004F010F2EF8EEAF2EB12CF02DF501808162
:100D5000877F8083B801C40147D2F50180818E77F7
:100D6000808321E0511001C020E030E0021B130B12
:100D7000280D391D4FEF440D652DC60139DF0FB623
:100D8000F8947EBE0FBE6DBE63C080913E01813A75
:100D900009F05EC0E8EEF0E08081877F808380818B
:100DA00080FFFDCFF60181858093F100E8EEF0E051
:100DB00080818E778083CCD34BC080913E0181327D
:100DC00009F046C0E8EEF0E08081877F8083C0D3E1
:100DD0009091400181E0911101C080E0F60181878E
:100DE00037C080913E01813299F5E8EEF0E08081D4
:100DF000877F8083ADD38091400190914101882706
:100E00000024880F991F001C880F991F001C892F30
:100E1000902DF601958784871BC080913E01813A11
:100E2000B9F4E8EEF0E08081877F8083808180FFE5
:100E3000FDCFF6018485958596958795969587953E
:100E40008093F100E8EEF0E080818E77808380D39C
:100E50000FB6F894FEBE0FBEEDBE0F900F900F9030
:100E6000DF91CF911F910F91FF90EF90DF90CF9086
:100E7000BF90AF909F908F907F906F905F904F90BA
:100E80003F900895FC01399627E0DF011D922A95D5
:100E9000E9F721E0FC01218724EF31E03587248741
:100EA00023E0248361E0019604C308955F926F926A
:100EB0007F928F929F92AF92BF92CF92DF92EF92EA
:100EC000FF920F931F93CF93DF9300D01F92CDB764
:100ED000DEB77C01ADB6BEB680913D01843009F02D
:100EE0008AC08091E4009091E500F7012285338566
:100EF0002817390709F47FC081818F708093E9003A
:100F00008091E80085FF77C08DB69EB6408550E0A1
:100F10008DB79EB7841B950B0FB6F8949EBF0FBE7E
:100F20008DBFEDB7FEB731966F011B821A82198211
:100F300060E070E0CF0165D68E010F5F1F4F960114
:100F400040E0BE016D5F7F4FC701FEDA582EF7010A
:100F500084859585892B41F081E026853785232B73
:100F600009F080E0782E01C0712CF701068117810D
:100F70000115110589F049815A81B801C6012BD6A6
:100F800066246394892B09F4612CF701408550E0B5
:100F9000B601C8012DD601C0612C89819A81892BA7
:100FA000F1F0511004C0611002C070FE18C0F701CA
:100FB000848595859787868781818F708093E900E6
:100FC0008B8181118093F10069817A8140E050E04A
:100FD000C60129D0E8EEF0E080818E778083809191
:100FE000E4009091E500F701938782870FB6F894AB
:100FF0009EBE0FBE8DBE0FB6F894BEBE0FBEADBE78
:101000000F900F900F90DF91CF911F910F91FF9054
:10101000EF90DF90CF90BF90AF909F908F907F9098
:101020006F905F9008958F929F92AF92BF92CF92F0
:10103000DF92EF92FF920F931F93CF93DF938C0178
:10104000EB015A01A9D281113EC0A114B10439F0BB
:10105000F50180819181C81BD90B080F191F2097BA
:1010600089F1E12CF12C0F2EF8EE8F2E912CF02D22
:101070000F2EF1EFCF2ED12CF02DF401808185FDC4
:1010800014C080818E77808365D5A114B10449F0A6
:10109000F50180819181E80EF91EF182E08285E000
:1010A00012C07AD2882351F00EC0F80181918F01CD
:1010B000F60180832197FFEFEF1AFF0A2097E9F6E8
:1010C00080E001C080E0DF91CF911F910F91FF90F0
:1010D000EF90DF90CF90BF90AF909F908F9008954A
:1010E000CF92DF92FF920F931F93CF93DF932091C4
:1010F0004401309145012617370758F061157105F5
:1011000039F4E8EEF0E020812E7720839B0101C0C6
:101110009B01A82FB92F10E0E8EEF0E063EF70E03C
:1011200042EF50E00F2EF1EFCF2ED12CF02D01E049
:10113000F12C30C080913D01882309F442C08530F4
:1011400009F441C0808183FD40C0808182FD32C0AE
:10115000808180FF1FC0EB011881EA01888190E047
:10116000912B2115310579F08830910560F41D919E
:10117000E60118832150310901962115310519F036
:1011800088309105A1F7102F089709F01F2D808155
:101190008E7780832115310569F61111CBCF0AC0F6
:1011A00080913D01882399F0853099F0808183FFFB
:1011B00003C011C0E8EEF0E0808182FFF1CF80E053
:1011C0000BC082E009C083E007C081E005C082E077
:1011D00003C083E001C081E0DF91CF911F910F91A7
:1011E000FF90DF90CF900895EF92FF921F93CF93DF
:1011F000DF936115710551F5E8EEF0E080818B77A2
:10120000808345C080913D01882309F447C0853023
:1012100009F446C0808183FD45C0808182FFF2CF02
:101220004DC0EA0188818D936150710941F0E90157
:101230001881E701888190E0912B892B91F78081BB
:101240008B7780836115710571F421C0A82FB92FA8
:10125000E8EEF0E023EF30E00F2EF2EFEF2EF12C6E
:10126000F02D41EF50E080913D018823E9F0853079
:10127000E9F0808183FD1CC0808182FD1FC0C2CF48
:1012800080913D018823B1F0853019F415C0E8EE56
:10129000F0E0808180FFF4CF80E01AC082E018C0C7
:1012A00083E016C081E014C082E012C083E010C069
:1012B00081E00EC082E00CC083E00AC0E901188121
:1012C000E701888190E0912B892B09F0AACFB7CF55
:1012D000DF91CF911F91FF90EF900895CF92DF9211
:1012E000FF920F931F93CF93DF932091440130918E
:1012F00045012617370758F06115710539F4E8EEF6
:10130000F0E020812E7720839B0101C09B01E82F14
:10131000F92F10E0A8EEB0E063EF70E042EF50E08C
:101320000F2EF1EFCF2ED12CF02D01E0F12C31C09A
:1013300080913D01882309F443C0853009F442C0FF
:101340008C9183FD41C08C9182FD33C08C9180FFD4
:1013500020C0EB011881EA01888190E0912B2115D2
:10136000310581F08830910568F41491E601188305
:1013700031962150310901962115310519F0883037
:10138000910599F7102F089709F01F2D8C918E77F2
:101390008C932115310561F61111CACF0AC08091D5
:1013A0003D01882399F0853099F0808183FF03C047
:1013B00011C0E8EEF0E0808182FFF1CF80E00BC049
:1013C00082E009C083E007C081E005C082E003C07D
:1013D00083E001C081E0DF91CF911F910F91FF90D9
:1013E000DF90CF9008958F929F92BF92CF92DF921D
:1013F000EF92FF920F931F93CF93DF93873070F19B
:1014000026C0292F2F70E7012883891731F0E801C2
:1014100078812081E401588103C0242F762F5B2D31
:1014200021FF12C03C913E7F3C9330813D7F308351
:101430003C9131603C93E80178832083E401588338
:10144000E6012881222344F49F5F9730D1F68F7004
:101450008093E90081E021C080E01FC0982F9F7039
:101460009093E900982F242F762F50E0ABEEB0E058
:10147000EDEEF0E00CEE10E00F2EF0EF8F2E912C41
:10148000F02D0F2EFEEECF2ED12CF02D0F2EF9EEDB
:10149000EF2EF12CF02DB12CC3CFDF91CF911F9106
:1014A0000F91FF90EF90DF90CF90BF909F908F9023
:1014B0000895EF92FF920F931F93CF93DF936623CC
:1014C000E9F1062FC82FD92F10E00F2EF6E0FF2EDE
:1014D000F02D6894EE24E1F85881552349F19C8160
:1014E000E981FA816B81852F8F70873048F59230C2
:1014F00010F44E2D01C04F2DE930F10550F028E0D9
:1015000030E090E09F5F220F331F2E173F07D0F38C
:1015100001C090E09295907F492B90E4699FB001C3
:101520001124551F5527551F652B5DDF882349F072
:101530001F5F25960113D0CF81E003C081E001C079
:1015400080E0DF91CF911F910F91FF90EF90089570
:1015500080913E01882344F0E8EEF0E014C08091D1
:101560003D01811103C00895E8EEF0E0808182FF23
:10157000F6CFE8EEF0E080818B778083089580914C
:101580003D01882341F0808180FFF9CFE8EEF0E053
:1015900080818E77808308950F931F93CF93DF937D
:1015A0002091E4003091E50065E6ACEEB0E0E8EEB5
:1015B000F0E00BEE10E044EE50E001C09C019C9185
:1015C000892F817090FD1DC020C080913D0188232E
:1015D00081F0853081F0E801888185FD0EC0EA0147
:1015E000888199812817390751F3615039F784E0D0
:1015F0000FC082E00DC083E00BC081E009C080E035
:1016000007C0808180FFE1CFFACF908192FFDDCFCC
:10161000DF91CF911F910F9108950F931F93CF9357
:10162000DF934CD053D0C8EDD0E088818F7788838A
:1016300088818068888388818F7D888319BC109217
:101640003D011092390110923B0110923A0100EED7
:1016500010E0F80180818B7F80838881816088839E
:1016600042E060E080E0BFDEE1EEF0E080818E7F6E
:101670008083E2EEF0E080818160808380818860F9
:101680008083F80180818E7F808388818061888358
:10169000DF91CF911F910F910895E8EDF0E08081E7
:1016A0008F7E8083E7EDF0E080818160808384E03D
:1016B00082BF81E080933C01B0CF0895E8EDF0E077
:1016C00080818E7F80831092E20008951092DA006C
:1016D0001092E10008951F920F920FB60F921124FD
:1016E0002F933F934F935F936F937F938F939F932A
:1016F000AF93BF93EF93FF938091E10082FF0BC004
:101700008091E20082FF07C0E1EEF0E080818B7FF4
:1017100080830E9498028091DA0080FF1FC0809130
:10172000D80080FF1BC0EAEDF0E080818E7F8083CF
:101730008091D90080FF0DC080E189BD82E189BD23
:1017400009B400FEFDCF81E080933D010E94890233
:1017500005C019BC10923D010E948A028091E100EF
:1017600080FF16C08091E20080FF12C0E2EEF0E040
:1017700080818E7F8083808180618083E8EDF0E0CE
:1017800080818062808319BC85E080933D01E1D136
:101790008091E10084FF2FC08091E20084FF2BC084
:1017A00080E189BD82E189BD09B400FEFDCFE8ED8D
:1017B000F0E080818F7D8083E1EEF0E080818F7E9C
:1017C0008083E2EEF0E080818F7E80838081816083
:1017D000808380913901882321F084E080933D014A
:1017E00009C08091E300882314F081E001C083E008
:1017F00080933D01AED18091E10083FF1EC08091B6
:10180000E20083FF1AC0E1EEF0E08081877F8083F1
:1018100082E080933D011092390180818E7F808328
:10182000E2EEF0E080818E7F808380818061808322
:1018300042E060E080E0D7DD8CD1FF91EF91BF9175
:10184000AF919F918F917F916F915F914F913F9158
:101850002F910F900FBE0F901F9018950F931F930D
:10186000CF93DF93CDB7DEB7AA970FB6F894DEBF5C
:101870000FBECDBFEEE3F1E026E431E0A1EFB0E032
:101880008C9181932E173F07D9F70E949402809183
:10189000E80083FF39C1EEE3F1E09081818185307A
:1018A00009F47FC030F48130C9F168F08330B1F1C0
:1018B0002BC1883009F4F2C0893009F4FFC08630AA
:1018C00009F022C191C0903821F0923809F01CC172
:1018D00008C080913A0190913B01992389F0826080
:1018E0000FC0809142018F70873008F00DC1E9EE82
:1018F000F0E080838091EB0085FB882780F91082DF
:10190000E8EEF0E09081977F9083A1EFB0E08C93B8
:101910001C9280818E7780831BDEF6C0992309F4A8
:1019200002C1923009F0F0C003C191E0833009F0A8
:1019300090E090933B012CC0809142018F709FEF0B
:10194000980F963008F0E0C08093E9009091EB008A
:1019500090FF1EC090913F01933031F4EBEEF0E028
:1019600080818062808314C0EBEEF0E09081906112
:10197000908321E030E0A90102C0440F551F8A95F1
:10198000E2F7AAEEB0E04C931C92808188608083DD
:101990001092E900E8EEF0E08081877F8083D8DD57
:1019A000B3C09111B1C0109140011F77E3EEF0E098
:1019B00080818078812B8083E8EEF0E08081877FD2
:1019C0008083C6DDE8EEF0E0808180FFFDCFE3EEAE
:1019D000F0E0808180688083111102C082E001C044
:1019E00083E080933D0190C09058923008F08CC005
:1019F00080914001909141018C3D53E0950799F50C
:101A000083E08A838AE289835FB7F894DE011396C4
:101A100020E03EE041E2E32FF0E040935700849164
:101A200020FF03C082958F703F5F8F708A3018F05F
:101A300090E0C79602C090E0C0968D939D932F5F73
:101A4000243149F75FBF08EE10E0F8018081877FFD
:101A500080836AE270E0CE01019642DBF80180816A
:101A60008B77808351C06091420170914301AE0138
:101A70004F5F5F4F0E94DF00BC01892B09F444C017
:101A800008EE10E0F8019081977F908389819A8118
:101A900025DCF80180818B77808336C09038A1F5F2
:101AA000E8EEF0E08081877F808380913901809328
:101AB000F10080818E7780834BDD26C0911124C098
:101AC000809140019091410199270297ECF4E8EE52
:101AD000F0E08081877F808380914001809339018D
:101AE00037DD80913901882321F084E080933D0126
:101AF00009C08091E300882314F081E001C084E0F4
:101B000080933D010E948B028091E80083FF16C004
:101B1000E8EEF0E08081877F8083EBEEF0E080816B
:101B2000806280830BC090914001913069F7FDCEB7
:101B300080914001882309F4FFCE2ACFAA960FB6E0
:101B4000F894DEBF0FBECDBFDF91CF911F910F91F3
:101B500008950895CF9380913D01882399F0C09115
:101B6000E900CF708091EC00982F917080FD90E893
:101B7000C92B1092E9008091E80083FD6FDECF70E1
:101B8000C093E900CF91089597FB072E16F40094B7
:101B900006D077FD08D00BD007FC05D03EF4909519
:101BA00081959F4F0895709561957F4F0895AA1B69
:101BB000BB1B51E107C0AA1FBB1FA617B70710F038
:101BC000A61BB70B881F991F5A95A9F7809590956A
:101BD000BC01CD010895FB01DC0104C08D91019091
:101BE000801921F441505040C8F7881B990B089583
:101BF000FB01DC0102C001900D9241505040D8F72A
:101C00000895DC0101C06D9341505040E0F7089504
:041C1000F894FFCF76
:101C1400008108000001120105000000000000001E
:00000001FF
